:100000008DC100009DC100009BC1000099C100008E
:1000100097C100000C948D2293C10000BBC6000064
:100020008FC100008DC100000C94C2180C94712285
:100030000C947F220C949C1883C1000081C10000A5
:100040000C944B227DC100007BC1000079C10000EF
:1000500077C10000A0C6000073C1000071C100009C
:100060006FC100006DC10000E62FF72F903009F43A
:100070009395E5B8C4B8B7EFB0937A00A5E0A09324
:100080007B00A8E0A093810010928000AFEFA093C6
:100090008500A0938400A6E0A093360010928B0008
:1000A00010928A00B6E0AFE7A91B51E0392F363035
:1000B0002AF0A058B94F53953650F9CFB093890024
:1000C000A0938800A0917A00A4FFFCCFB7EBB09377
:1000D0007A00A2E0A0936F00A9E0A093810062E003
:1000E000A0E0A0937B00A1E0A09353008895E5B821
:1000F000C4B884FF19C0A3E4AA95F1F7EF93FF9366
:10010000E7B1F8B1A4E0C2FCA2E0C0FCA1E0BF2FBF
:10011000BA2BAE2BB8B904B9A7B9E7B9F8B9FF91B2
:10012000EF910AC00C947300A7E40000AA95F1F7C0
:1001300025B9E5B8000004B9A0918400A09185001C
:10014000B0918900A395AB1768F7A0917A00A4FF3E
:10015000F3CFB7EBB0937A006A9571F760917800AE
:1001600070917900308186FD630F6193308186FD47
:10017000731F80FF7193652F4A9579F710926F0076
:1001800010928100B7E0B0937A000895010410093D
:100190000A0C4E6F742063616C69627261746564ED
:1001A0002120466F72FF63616C6962726174696FCE
:1001B0006E20636C616D70207468652033FF706918
:1001C0006E7320746F67657468657220616E642059
:1001D0007374617274207769746820746865FF6B4A
:1001E00065792E2041636B6E6F776C65646765205F
:1001F0007468652073656C662D7465737420776907
:10020000746820746865206B657920776974686903
:100210006EFF32732E20446973636F6E6E65637474
:100220002070696E7320616674657220746865FF62
:100230006D657373616765202269736F6C617465A6
:10024000FF50726F626521222069732073686F7797
:100250006E2E20536F66747761726520616E642024
:10026000646F63756D656E746174696F6E20697318
:100270002061742073766E3A2F2F206D696B726F38
:10028000636F6E74726F6C6C65722E206E65742F66
:100290007472616E736973746F72207465737465C0
:1002A000722000B903870358032E030703E402C337
:1002B00002A40288020000140029003E00530069D5
:1002C0000080009700AE00C600DF00F80012012D8C
:1002D00001490165018201A001BE01DE01FF01218A
:1002E00002440268028E02B502DE0209033503648D
:1002F000039403C803FE0337047304B404F90443EE
:10030000059305EA054906B3062907AE074808FF25
:1003100008DE09FD0A930C480F991B0011241FBE2B
:10032000CFEFD8E0DEBFCDBF21E0A0E0B1E001C05B
:100330001D92AA3BB207E1F70E940F2D0C9489345D
:100340005FCE80FD5C9A80FF5C98549A00005D9AB5
:10035000559A589859985A985B9864FD589A509AAB
:1003600065FD599A519A66FD5A9A529A67FD5B9AB1
:10037000539A00005D9888D387FD10C05D9A589805
:1003800059985A985B9860FD589A61FD599A62FD98
:100390005A9A63FD5B9A00005D9876C30895809138
:1003A0003B01809300018091A10180930201089597
:1003B000CF93C82F80913B018F5F80933B016C2FBF
:1003C00081E0BFDF58D3C83050F4C630C0F4C2302B
:1003D00071F0C33081F0C130E1F48EE30DC0C43E52
:1003E00081F0C43F81F0CD32A1F48DE213C08CE7DF
:1003F00015D38CE30FC08CE711D38CE70BC082E5DB
:1004000009C085E707C08FE409D388E607D38DE6E6
:1004100001C08C2F03D3A895CF9108958F5CC8CFCE
:10042000089580E2C5CF0895CF93C82F1C161CF401
:10043000F8DFC150FBCFCF9108958DE3B9CF089578
:10044000682F80E07EDF17C3089560933B01813001
:1004500011F480EC01C080E8860FF2CF089560911E
:10046000000180910201F1CF08958DE0D7D28AE09A
:10047000D5C208951092A10180E8E2DF10923B01FD
:10048000F4CF089581E0DCDF82E001D3F3CF08955B
:1004900081E08093A10180ECD3DF10923B01E5CF96
:1004A000089582E08093A10180E9CADF10923B01A8
:1004B000DCCF089583E08093A10180EDC1DF10922D
:1004C0003B01D3CF0895CF93DF93EC01899188232B
:1004D00011F06EDFFBCFDF91CF910895CF93DF93C3
:1004E000EC01FE018491982F9F7719F061DF21962E
:1004F000F8CFDF91CF910895CF93DF93EC01CE0138
:100500000E945B34982F9F7719F052DF2196F7CF26
:10051000DF91CF9108950F931F93CF93DF93EC0159
:1005200028968C010F5F1F4F0E945B3441DFC8018A
:100530000C171D07B1F7DF91CF911F910F9108950F
:1005400084E1A5D283E37CDF82E37ADF82E09FD27D
:1005500080E276DF80E274DF8AE272DF88E070DFBB
:1005600086E06EDF82E06CDF8DDF81E090D28CE090
:1005700067DF88E465DF84E590E0CDDF80E560DF5C
:100580008CE490E0C8DF88E55BDF8CE590E0C3DFBA
:1005900088E756DF84E490E0BEDF80E751DF8CE33C
:1005A00090E0B9DF80E44CDF84E390E0B4CF0895BD
:1005B00090913B0180E1891B37CF0895CF93C82FDD
:1005C000F7DF8091A1018F5F8093A101823030F02D
:1005D00081E08093A10180933E0102C010923E0110
:1005E0006C2F8091A10131DF40DFCF910895E6DFCC
:1005F00034D38091A101833008F037CF08953ADFDA
:10060000D7DF38CF089544DFD3DF42CF0895089570
:100610000F9385E791E070DF409185014D3F64F4D1
:1006200060917301709174018091750190917601D0
:1006300003E026E4EAD002C08FE3BADE0F9108950A
:10064000909119019F70923071F4D1DF84E690E0AF
:1006500053DFE0913C01F0913D0122E044EF6FEF68
:1006600084819581BCC1089597FF09C08F939F93A2
:100670008DE29EDE9F918F91909581959F4F61E2D3
:1006800071E04AE050E00E9428341DCF0895ECDF6D
:1006900001C0EADFC6CE0895EF92FF920F931F9339
:1006A000182F062FF42E84E691E026DFEE24E09149
:1006B0003C01F0913D018685E81611F4812F09C0B7
:1006C0008485E81611F4802F04C08585E81611F49E
:1006D0008F2D6EDEE3948E2D833049F71F910F919D
:1006E000FF90EF900895682F80E092E0662309F470
:1006F00091E0623009F481E008950F93082FE2EA57
:10070000F1E0880F880FE80FF11D6081718182810F
:100710009381643671058105910570F42091010182
:1007200027FD0AC0802FDFDF692F0E94551E6EEF64
:1007300023E044EF54D104C04FEF04E024EF65D030
:1007400070DE0F910895863058F4E5E9F1E0E80F86
:10075000F11DE80FF11D8081918163E04BD161CEE5
:1007600008951F93182F80916F01882319F059DE87
:1007700080E01EDE8DDE8BE591E0BEDE812F82956E
:100780008F70E1DF812F8F70DEDF1F9108958091E0
:100790000D0182958F7019D080910D0183701CD04E
:1007A00080910D01DECF0895E9E8F1E0E80FF11D39
:1007B0000895CF93F9DF9081C681C91710F405D051
:1007C00001C013D02EDECF910895EEDF8F9380818C
:1007D00025DE8F9101C008958F9387E291E08CDE32
:1007E0008F91E2DF86811ACE0895DEDF8F938681B6
:1007F00015DE8F9101C008958F9383E291E07CDE36
:100800008F91D2DF80810ACE0895AEE0B0E0EBE0B8
:10081000F4E00C94C833142F622E702E6B017C010F
:100820000F7080E389838A838B838C838D838E838F
:10083000F7FE0BC08DE2BCDDF094E094D094C09440
:10084000C11CD11CE11CF11C04C075FE02C08BE26E
:10085000AFDD033071F0043099F00530C1F006309F
:10086000F1F0073021F174E6872E912CA12CB12CE8
:1008700025C068EE862E63E0962EA12CB12C1EC0FA
:1008800050E1852E57E2952EA12CB12C17C040EADD
:10089000842E46E8942EAA24A394B12C0FC030E4F1
:1008A000832E32E4932E3FE0A32EB12C07C020E824
:1008B000822E26E9922E28E9A22EB12C9AE0292E2A
:1008C000312C412C512CC814D904EA04FB0470F0DB
:1008D000C701B6016B5F7F4F8F4F9F4FA201910100
:1008E0000E94E03269017A011F5FEDCF81E1810F43
:1008F0009BEA899F812D1124A82EA69486E0811B56
:10090000899F112D11241695912F990F190F811B75
:10091000182F4E0187E0880E911C2AE0A401C70120
:10092000B6010E940734F40101900020E9F73197E5
:100930007F01E818F9089E2C6701DD24812F90E0E3
:1009400004968C159D0514F4A3941D5F8A2D90E0E8
:10095000845D9F4F0E945B34A82E74FE04C09016E5
:1009600010F40E1901C000E08E2C811A800E1814AC
:1009700024F08EE21DDD012F0E19111102C088EF47
:10098000882E912C10E0C00ED11EE82C082C000CF3
:10099000FF08892D90E08C159D05ACF4FC0136967E
:1009A000E01BF10B81E090E08C0F9D1FE80FF91F19
:1009B0008081FEDC9394892D90E08E159F0549F788
:1009C0008EE2F6DCE6CFAA2011F08A2DF1DC66205B
:1009D00011F0862DEDDC2E96E2E10C94E4330F93BA
:1009E000362FBC0180E090E0022F242F432F0DDF33
:1009F0000F9108950F93062FBC0180E090E026E54B
:100A00004DEF03DF0F9108950F93042F28E440E08A
:100A1000FCDE8AE7CDDC05DD0F9108958F932F93DF
:100A20002AE080953B9A089410F4439802C0439AB8
:100A3000000020D027D086952A95B1F72F918F916D
:100A4000089503D002D001D000D000D003D002D04E
:100A500001D000D000D003D002D001D000D000D00F
:100A6000A89503D002D001D000D000D003D002D08E
:100A700001D000D000D003D002D001D000D000D0EF
:100A800003D002D001D000D000D00000089590E043
:100A9000893C28F0885C48EC849FC00111240097B1
:100AA00009F4089520918100277019F0D9DF01978A
:100AB000F6CF8130910519F002973CE803C03EE380
:100AC00080E090E02091B200230F2093B30042E039
:100AD0004093700027E023BF889526E023BF109243
:100AE0007000A895DCCF8F9384E0D1DF07C08F938F
:100AF00082E0CDDF03C08F9381E0C9DF8F911F9328
:100B0000182F106410937C00E12FE07880912C0165
:100B1000E81759F0E0932C01ADDF8FE980937A005C
:100B200083E083BF889582E083BF20E030E0A901A5
:100B3000E0E01FC08FE980937A0083E083BF88954F
:100B400082E083BF6091780070917900260F371F93
:100B5000411D511DE43061F480912E01803041F03F
:100B600084E02030380720F417FD02C01068CACF97
:100B7000EF5F80912B01E817E8F260912F017091EF
:100B8000300117FF04C060912D0170912E0180E0AB
:100B900090E00E949E322FEF33E040E050E00E9450
:100BA000E032B901CA0120912B0130E040E050E071
:100BB0000E94E032C9011F9108959B01281B390B47
:100BC00050F0C9010895BC0180912F01909130012E
:100BD0006817790718F4861B970B089580E090E05A
:100BE0000895EF92FF920F931F93CF93DF93F82E08
:100BF000E92EC5E64F9B05C0CF2DDE2D15E500E0A3
:100C000019C081E044DFC150A9F7F6CF82E03FDF91
:100C1000110F4F9B1F5F1F731F3379F4011103C026
:100C2000CF2DDE2D04E00F5F083C88F4A8951C163C
:100C30001D0644F0D7FFEACF0AC01111F7CF0023F9
:100C4000A9F305C02A97B1F7CFEFDFEFF3CF802FDD
:100C5000CDB7DEB7E6E00C94F033CF93A0DBC82F1E
:100C600080913E018823C1F0813049F4C13039F4CC
:100C70006FE0EBDB8BE29CDB6FE081E0E6DB80E4A6
:100C80009FE1AFDFC13039F480913E01813019F42A
:100C900060E0DBDB8DDCE3DBCF9108958BE293E05A
:100CA0000E945B34382F8CE293E00E945B342091E9
:100CB0003301230F30913401381F209316013093F4
:100CC000170183E0283E380720F0C901885E934071
:100CD00002C080E090E062E370E00E94B9326830C8
:100CE00008F067E0E3EAF2E0E60FF11DE60FF11D20
:100CF000459155912591359162E3681B421B530B39
:100D0000649FC001659F900D1124499662E370E0D5
:100D10000E94B932620F731F709372016093710168
:100D20008DE293E00E945B34992787FD9095609156
:100D3000330170913401860F971F90932E01809399
:100D40002D0190936E0180936D010895CF93DF93F1
:100D500024E130E0B9010E94B932DC01E5EBF2E0B8
:100D6000E60FF71FE60FF71FC591D59145915591F5
:100D70004C1B5D0B4A9FC0014B9F900D5A9F900DDD
:100D80001124B9010E94B9326C0F7D1FCB01DF9194
:100D9000CF9108951895189530911801A0913C01B4
:100DA000B0913D01E9E8F1E080E090E08317B0F414
:100DB00041911C962C911C97421719F045812413E0
:100DC00002C00196F3CFFC01EE0FFF1FEB56FE4F62
:100DD00020813181293E334008F4089584E108954B
:100DE00010921A01109218011092680110924E018F
:100DF0001092190110923A0110926F01E3E5F1E0AF
:100E0000108211821282E3E7F1E0108A82E0818B86
:100E10001092010117861686148215821682178297
:100E200081EF838B08958FE4F9DD86E4F7DD86E4B6
:100E3000F5DD1BDB5E9808DE80E090E0D2CE089501
:100E40001F93CF93DF93162F98E097B998B9E82FA7
:100E5000F0E0E457FE4F949195B9262F281BE20F3E
:100E6000F11D27FDFA95E491E92BE4B948DEEC0188
:100E7000812F45DEAC0120912F0130913001369554
:100E80002795C9010397BE01625E7F4F86179707BA
:100E900078F4255E3F4FC217D30750F4BA01625E63
:100EA0007F4F8617970720F481E04217530708F019
:100EB00080E014B8DF91CF911F910895CF9361E046
:100EC00080E0BEDFC82F62E080E0BADFC80F62E0DA
:100ED00081E0B6DF8C0FCF910895AFE0B0E0E3E79B
:100EE000F7E00C94C833B82E10921A01807FA9F451
:100EF000E5DF833009F07FC3C5DA8BE392E0FCDAEB
:100F0000C7DA8FE355DA80ED97E06BDE8B30C0F403
:100F1000B9DA85EF90E0F0DA6EC306E910E0B2DAF4
:100F20008AEA91E0E9DACADF833021F41F5F1430E6
:100F300010F006C010E088E2AADD015081F763C01E
:100F4000A7DA0E94231981EB90E0D6DA60E085E011
:100F500093E00E94683460E086E093E00E94683489
:100F600060E084E093E00E94683460E082E00E94E8
:100F7000551E6C019A83898361E082E00E94551EB0
:100F80007C019C838B8360E081E00E94551E8C0174
:100F90009E838D8323E040E26EEFC60120DD23E0D7
:100FA00040E26EEFC7011BDD23E044EF6EEFC801A6
:100FB00016DD2AE5C216D10424F084E190E09A837C
:100FC0008983698185E093E00E9468348AE5E816A8
:100FD000F10424F084E190E09C838B836B8186E0B4
:100FE00093E00E9468340A35110524F084E190E012
:100FF0009E838D836D8184E093E00E94683482E05B
:1010000080933E012ADEEB2DEF70EF87E13011F087
:1010100018E734C1EE24E394F12C78EB872E72EDBF
:10102000972E77E4A72EB12CE2E0DE2E08E0F0E266
:101030003F2EC12C1E2D52E2252EE5DAE0DA84E5A2
:10104000B7D9C7011CDBEDD91130B1F484EE90E0C3
:1010500053DA64E08091330190913401CBDC18DAEB
:101060008FED90E049DA809171019091720107DB78
:101070008EEB80932B01DFC0123079F520912F0188
:1010800030913001A8E5BBE10E941E3324EC36E329
:1010900040E050E00E94023329013A0181E085B925
:1010A000F5E0F4B980E01FDD841995099A838983FE
:1010B00081E184B980E017DD841995099C838B83D5
:1010C00084E085B984E184B981E00DDD8419950956
:1010D0009E838D8389EC90E09EC0133041F5D5B896
:1010E0002AE024B980E0FFDC20912F01309130010B
:1010F0003695279538872F83821B930B9A83898394
:1011000024B880E0F0DC2F813885821B930B9C8310
:101110008B8305B988E284B981E0E5DC2F813885CD
:10112000821B930B9E838D838BEB90E074C01430F5
:1011300039F48BE292E0E0D9C1DE811159C26FC06F
:10114000153099F415B8D4B880E0CDDC9A83898342
:1011500004B981E0C8DC9C838B8334B882E0C3DCB3
:101160009E838D838BED90E056C0163039F5D4B850
:10117000D5B880E0B8DC20912F0130913001821B7E
:10118000930B9A83898304B905B981E0ACDC209183
:101190002F0130913001821B930B9C838B8334B8D9
:1011A00035B882E0A0DC20912F0130913001821B04
:1011B000930B9E838D8387ED90E02DC0173069F5EA
:1011C00020912F0130913001A8E5BBE10E941E3330
:1011D000A50194010E94E03229013A01D5B8E3E06B
:1011E000E4B980E080DC841995099A83898305B984
:1011F000FCE0F4B981E077DC841995099C838B834A
:1012000035B820E324B982E06EDC841995099E8309
:101210008D8385EB90E070D902C0113061F038D930
:1012200089819A8121DAFDD88B819C811DDAF9D8D8
:101230008D819E8119DA07B908B914B815B888EEFE
:1012400093E0CFDC143011F08B3020F4C39484E0B1
:10125000C812F3CE88EE93E0C4DCEFEFEE1AFE0A7C
:10126000F8E0EF16F10409F0E4CED2CECCD98BE24F
:1012700092E042D984E60BDC115019F01FDE811197
:10128000F5CF00D98AEA90E037D923E044EF6FEF39
:101290008091310190913201A2DBFAD883EA90E08B
:1012A0002BD923E044EF6FEF809138019091390101
:1012B00096DB82E080933E01D0DC10921A01E2D8E6
:1012C0008FE990E019D960E082E00E94D415809007
:1012D0007B0190907C01A0907D01B0907E019C8666
:1012E0008B8661E082E00E94D415C0907B01D09093
:1012F0007C01E0907D01F0907E01DE86CD8660E08D
:1013000081E00E94D41500917B0110917C011E8325
:101310000D8362E080E00E94D41580917B01909162
:101320007C019C838B8362E081E00E94D4158091D4
:101330007B0190917C019A87898761E080E00E941F
:10134000D41580917B0190917C019A8389832F85AC
:10135000213021F020913701223021F40296988724
:101360008F8306C098878F83109237018CE068D8EE
:10137000C4018FD9C6018DD9B801110F880B990B03
:1013800003E026E444EF41DA8E010F5F1F4F6E0148
:101390008FE0C80ED11CF801819191910A97853B8D
:1013A0009105C8F4CE16DF06B9F744E2E42E43E017
:1013B000F42EF80160810E5F1F4F6E5EC7010E9420
:1013C0006834FFEFEF1AFF0AC016D10691F760D814
:1013D00087E991E091D882E080933E013EDC0E9453
:1013E000AB292F85213029F080913701823009F017
:1013F000E6C048D880E012D88DE491E07DD882E044
:101400000DD884E290E078D820E4F22E10E03AE0A3
:10141000832E912CA12CB12CE3DC10921A0160E0F8
:1014200082E00E94D41500918501209173013091D2
:1014300074014091750150917601073F44F40F5FAC
:10144000CA01B901A50194010E94E032F6CF0093D0
:10145000850120937301309374014093750150937B
:101460007601073F09F094C0DA01C901805691095D
:10147000A109B10980399545A105B10508F088C0D9
:101480006091870170918801CB018B569F4F8B3201
:10149000914008F07DC01F5F153008F47AC08BE2E0
:1014A00093E00E9476340E9442028DE190E024D8BD
:1014B0008091870190918801D7D8F0DB88E088B9C6
:1014C00089E087B980E284B982E019DB853D9340E9
:1014D000DCF714B810922E0110922D0182E00FDB80
:1014E0008C0180916D0190916E0190932E018093FB
:1014F0002D0182E004DB7C01EE0CFF1C10922E011A
:1015000010922D0182E0FBDAA0906D01B0906E0187
:10151000B0922E01A0922D01800F911F8C010E1907
:101520001F090E94480286E190E00E947C028DE241
:1015300093E00E945B34D82E9501D8010E942D3390
:1015400097010F2C000C440B550B0E94023313E043
:101550001D0D120F612F8DE293E00E946834812FE0
:10156000012E000C990B80D899DB82E080933E011C
:1015700074DB109237018CE00E94200284E293E039
:101580000E945B34682F87E293E00E94683417C0A2
:1015900010E00E9448026091730170917401809183
:1015A00075019091760104E026E4409185012DD9E2
:1015B0000E94D80288E26BDAFA94F1102DCF89E10B
:1015C00080932B0180E00E94C92C0E94420285EF8B
:1015D00090E00E947C020E94480282E292E00E9417
:1015E0007C0210921A0182E080933E0136DB03C038
:1015F00082E0C82E14CE2F96E2E10C94E433809161
:10160000370181110DC084E293E00E945B3461E0F8
:10161000680F87E293E00E94683481E0809337018D
:101620000895EF92FF920F931F93CF93DF93D62FDE
:10163000E82FF0E0E157FE4FE491E8B9E860E7B940
:1016400015B8E62FF0E0E457FE4FE491E4B988E8DE
:10165000E82E83E1F82ECE2FCC0F8D2F44DA8C01AB
:10166000C4B98E159F0510F47801F7CF892BD9F0F6
:101670008BE291E00E947C02D80120EA36E841E04A
:1016800050E00E94333328E937EB40E050E00E94FD
:10169000E032DA01C90122E041E467EFA0D988E035
:1016A00087B988B914B8CDB7DEB7E6E00C94F0334B
:1016B0000F931F93CF93DF9385E021DA85E01BDA48
:1016C0008C01EC01CC0FDD1FCC0FDD1FCA56DF4FA4
:1016D00010923501C43883E0D80750F48BE891E0CC
:1016E0000E947C020E94D80281E08093350123C0D1
:1016F0008AE991E00E947C0262E0CE017BD90E94DF
:1017000011020A3F86E0180780F40333164050F4B4
:1017100084E992E00E947C020E94D8028DECB7D945
:1017200082DB09C08BE992E002C087E991E00E9468
:101730007C020E94D802DF91CF911F910F910895F2
:10174000FC019C01261B370B932F311101C091E046
:10175000290F311D852F9927BC01660F771F460F72
:10176000571F8B3E28F4E217F30770F7CA0108955C
:1017700080E090E00895A8E1B0E0E1ECFBE00C949B
:10178000C833582E462E342EA895E62FF0E0E457A5
:10179000FE4F24912C87220F2B8B339634913A8B5A
:1017A000E42FF0E0E457FE4F44914983339654917F
:1017B0005F83E82FF0E0E457FE4F2490822D880FDE
:1017C0008F87339694919B8398609C8338603A838B
:1017D00045B9AC84A42AA4B897B9EB81E8B9862F9F
:1017E0008AD99E878D87FC85F4B9842D84D93C01E4
:1017F00014B835D915B8A4B8842D7DD96D857E85EA
:10180000DCD96C012A8127B988E088B9398132296D
:101810003D8335B934B9852D6ED9D5D97C0115B83C
:101820001ED925B8852D67D9CED98C0124B8852D30
:1018300062D9C9D9B82E9987B801C701BED98032FB
:1018400041E0940730F450E2C51651E0D50608F4A3
:10185000A6C5C00ED11EED85FE858E0F9F1FC81632
:10186000D90620F41E870D876B2C798420914E01B8
:1018700030916801822F90E0830F911D02974CF008
:10188000213009F08CC590914B018091650198132E
:1018900086C5F981FF0FF88FF229FB872D853E85DC
:1018A0002437310508F495C1C901880F991F449662
:1018B0006816790608F08DC13C8137B94B8148B96B
:1018C0008C85588D852B84B9842D11D98C01832D5D
:1018D00016D97C01888D85B9842D09D99801295A9A
:1018E0003D4F2817390708F0B1C088E088B99A81C0
:1018F00097B9EB85E4B9E5B9832DF9D888349F40D1
:1019000028F085E080931A0182E204C085E080938C
:101910001A0184E28093190110934401009343015A
:10192000B701C80155D990934A01809349019801A4
:10193000A0E1B7E20E941E332091140130911501FD
:1019400040E050E00E94E032309346012093450190
:101950008B89288D822B84B915B83C8137B94B818E
:1019600048B9842DC4D89093480180934701832DB2
:10197000C6D82091470130914801F901E81BF90BC5
:10198000CF01F0934801E0934701209119012F7096
:10199000243071F540914501509146016091490113
:1019A00070914A01CDDE0097F9F0F88DF4B9EA891B
:1019B0002C81E22BE7B9842D9AD88C0188E087B975
:1019C0009801A0E1B7E20E941E33209138013091C6
:1019D000390140E050E00E94E032A901B801809155
:1019E000470190914801ACDE9093440180934301FC
:1019F000809119018F70843009F4C8C488E088B9D7
:101A00003F814A81342B37B924B85D8155B9852D82
:101A100072D88C01D8D89E838D83842D70D8E090A5
:101A20001B01F0901C01BC01C801D2D89701DC0158
:101A30000E941E33ED81FE819F0140E050E00E9434
:101A4000E0323093440120934301A0C488E088B978
:101A5000FA81F7B92B8524B925B9852D48D88C0191
:101A6000832D4DD87C0125B8852D41D8895A9D4FAD
:101A70008017910708F093C43B8138B94C8147B96E
:101A8000832D35D8813D934028F485E080931A0159
:101A900082E304C085E080931A0184E380931901F6
:101AA000B801C70195D89093640180936301C80180
:101AB0008AD89C01A0E1B7E20E941E3320911B014D
:101AC00030911C0140E050E00E94E0323093600110
:101AD00020935F01F8E0FF2EF8B88A8187B98F85DF
:101AE000988D892B84B985B9852D09D88C01832DD2
:101AF0000E947705B8016CD89C0190936201809395
:101B00006101909119019F70943099F540915F01A6
:101B1000509160016091630170916401C90110DE10
:101B2000009719F1E88DE5B9E4B9FB81F8B9EC81CA
:101B30002A81E22BE7B9852D0E94770544D88C01D4
:101B4000F7B89C01A0E1B7E20E941E332091310159
:101B50003091320140E050E00E94E032A901B8012A
:101B60008091610190916201EBDD90935E01809321
:101B70005D01809119018F70843009F4DFC1EB8120
:101B80003F81E32BE8B94C81342B37B915B85D811F
:101B900054B9852D0E947B057C01842D0E947F0510
:101BA0009E838D830091140110911501BC01C70122
:101BB0000FD89801DC010E941E33ED81FE819F0148
:101BC00040E050E00E94E03230935E0120935D01DE
:101BD000B5C188E088B9FA81F7B925B82B8524B951
:101BE000852D0E947B05998B888B0E94E305988741
:101BF0008F83832D0E947F059A878987430134E66E
:101C0000830E911C4F815885B30184169506D8F434
:101C1000CA010E94E8058C0120911B0130911C0132
:101C200040E050E060E871EA83E09CE10E94E0322D
:101C3000D8010E943333E985FA858F0120E030E036
:101C4000A901980123C08F8198850E94E8058C0125
:101C5000FD81F4B9852D0E947B05998B888B0E94AC
:101C6000E30598878F83832D0E947F059A87898754
:101C7000BC01C8010E94E8059C01A4E6B0E00E94F6
:101C80001E33E985FA859F0140E050E00E94E03272
:101C900069017A0114B815B8FB81F8B92C8127B90C
:101CA00081E00E944705A4B8842D0E947B05BC8476
:101CB000388DB32A8F359D4008F446C1B4B8842DC1
:101CC0000E9477058C01832D0E947F059D8B8C8B54
:101CD000852D0E947F059F8B8E8B8C899D89813DF0
:101CE000974008F4B7C084E080931A018DE0809398
:101CF00019016016710630F49801261937093E83E0
:101D00002D8302C01E830D838090140190901501D5
:101D1000A12CB12C60E871EA83E09CE1A50194015B
:101D20000E94E032AD81BE810E943333EC89FD898F
:101D30009F0140E050E00E94E032809168018823DA
:101D400069F08091590190915A01A0915B01B09185
:101D50005C0182179307A407B50708F52093590182
:101D600030935A0140935B0150935C019801A0E1CC
:101D7000B7E20E941E33A50194010E94E032309325
:101D8000600120935F016C897D898E899F890E9403
:101D9000E80590935E0180935D0181E001C080E0E1
:101DA0004091590150915A0160915B0170915C0121
:101DB0004C155D056E057F0538F5C0925901D0922E
:101DC0005A01E0925B01F0925C0169857A8588890D
:101DD00099890E94E80590935E0180935D012F81AF
:101DE0003885A0E1B7E20E941E3320911B0130919B
:101DF0001C0140E050E00E94E032205F384D3093FB
:101E0000600120935F0103C0882309F4B1C3C0902F
:101E10001401D0901501E12CF12C9301A0E1B7E25F
:101E20000E941E33A70196010E94E03230936201A6
:101E3000209361012D853E85A0E1B7E20E941E330B
:101E4000A70196010E94E032309364012093630160
:101E500081E08EC3F1E66F16710408F075C0013D94
:101E600027E0120708F470C085E080931A0182E130
:101E700080931901C80186509F4F4E895F8984174E
:101E8000950720F483E18093190119C08091140112
:101E9000909115019E838D83B8018E899F890E9440
:101EA000E8052D813E81DC010E941E33980140E04F
:101EB00050E00E94E03230935E0120935D019A89E8
:101EC0009770E92E832D806480937C00EBE0FE2EDA
:101ED000E1E0F0E0FE83ED830FEF13E0A89561E011
:101EE00089817AD5B4B886B18E21E9F3FC85F4B93D
:101EF00080917A00806480937A0080917A0086FDD8
:101F0000FCCF80917800909179009801281B390BC3
:101F10004D815E81420F531F5E834D83FA94F11011
:101F2000DDCFCA01880F991F880F991F69E070E003
:101F30000E94B932709364016093630180916801DB
:101F40008F5F8093680184CFB4B8588D55B9842DC4
:101F50000E947B056C01832D0E947F0598878F83EB
:101F60000E94E3059A8789878C149D04A8F4B30125
:101F7000C6010E94E8058C012091140130911501E1
:101F800040E050E060E871EA83E09CE10E94E032CA
:101F9000D8010E9433331FC0A4B8F981F5B9842D4C
:101FA0000E947B056C01832D0E947F0598878F839B
:101FB0000E94E3059A878987C6016C147D0410F49A
:101FC0008619970969857A850E94E8059C01A4E62F
:101FD000B0E00E941E33E985FA859F0140E050E0A1
:101FE0000E94E03249015A01FA81F7B988E088B9C4
:101FF0002D8124B925B9852D0E947B058C01832D67
:102000000E947F059A878987842D0E947F057C0125
:10201000003331E1130708F0BFC125B8852D0E94B8
:102020007B05998B888B24B8852D0E947B059D8B21
:102030008C8B15B881E00E94470525B8852D0E943C
:102040007B054C895D894034564008F05DC0813382
:10205000914108F459C0C8018A569F4F288939898F
:102060002817390708F050C086E080931A01809144
:102070004E018F5F80934E01B70189859A850E943A
:10208000E8059093440180934301B701C8010E9481
:10209000E80590934A018093490114B815B83A892C
:1020A00038B981E00E94470524B8852D0E947B0540
:1020B000853F910508F06AC24D8144B9832D0E9485
:1020C0007B05813D934008F461C2852D0E947F0508
:1020D0008D3D924008F45AC224B8852D0E947B059C
:1020E0008D3D924008F452C225B881E00E94470518
:1020F00015B8852D0E947B05853F910508F046C2E5
:1021000087E080931A0142C22A8127B9398134B904
:1021100035B981E00E9447054B8544B945B9852D05
:102120000E947B058C010E94E305998B888B832D8F
:102130000E947F059E838D830E94E3059A8789878D
:10214000842D0E947F057C0189859A858E3F994068
:1021500008F4B2C084E080931A018CE080931901E6
:10216000B301888999890E94E8058C0120911B019F
:1021700030911C0140E050E060E871EA83E09CE1AE
:102180000E94E032D8010E943333E985FA859F012D
:1021900040E050E00E94E03280914E01882369F0D7
:1021A00080913F0190914001A0914101B091420185
:1021B00082179307A407B50728F520933F013093B2
:1021C00040014093410150934201B7018D819E81AE
:1021D0000E94E8059093440180934301288939893E
:1021E000A0E1B7E20E941E3320911B0130911C0137
:1021F00040E050E00E94E0323093460120934501D8
:1022000081E001C080E040913F0150914001609128
:10221000410170914201481559056A057B0528F571
:1022200080923F0190924001A0924101B092420100
:10223000B6018F8198850E94E805909344018093B0
:1022400043019601A0E1B7E20E941E3320911401E0
:102250003091150140E050E00E94E032205F384D9F
:10226000309346012093450103C0882309F48FC1B0
:102270009301A0E1B7E20E941E3320911401309136
:10228000150140E050E00E94E03230934801209375
:1022900047012D853E85A0E1B7E20E941E332091C3
:1022A0001B0130911C0140E050E00E94E03230936D
:1022B0004A01209349016AC1F1E66F16710408F0E2
:1022C0006BC02889398929343D4008F465C085E010
:1022D00080931A0182E080931901C70186509F4FB5
:1022E0008017910720F483E08093190117C0C090F4
:1022F0001B01D0901C01B701C8010E94E80596019E
:10230000DC010E941E33E889F9899F0140E050E01A
:102310000E94E03230934401209343010B81077007
:10232000832D806480937C001BE021E030E03E83BD
:102330002D83A89560E089814FD33B8534B935B9A9
:1023400086B18023E9F724B880917A008064809375
:102350007A0080917A0086FDFCCF80917800909180
:1023600079004D815E81480F591F5E834D83115066
:1023700001F7CA01880F991F880F991F69E070E063
:102380000E94B93270934A016093490180914E01D5
:102390008F5F80934E01FAC088E087B988B914B87E
:1023A00015B888E087B957EC651651E0750608F452
:1023B000D0C088B98F8584B998EC9D83EC81FA816F
:1023C000EF2BEF832F8127B981E00E9447053A81E7
:1023D00037B9852D0E947F05429728F04D814150E5
:1023E0004D834111EFCF5F8554B955B961E08981C3
:1023F000F3D2852D0E947B056C018B8984B915B8B9
:102400009C8197B9EB81E8B960E08981E5D2842DA0
:102410000E947B050E94E3059E838D83FC85F4B9B1
:10242000842D0E947F058C01852D0E947B05B801BB
:102430000E94E8057C01842D0E947F058C01852D7A
:102440000E947B05B8010E94E805970128533F4F81
:102450002817390708F480C088E088B92A8127B98D
:1024600024B825B861E08981B7D2842D0E947F0508
:102470008C01852D0E947B05B8010E94E8058C0126
:10248000E816F90658F43F8534B935B9852D0E9410
:102490007B059C01CD82DE82780110C04B8944B956
:1024A00015B85C8157B98B8188B960E0898194D275
:1024B000842D0E947B050E94E3059C0198EEE9169D
:1024C00093E0F90630F4C70164E670E00E94B93287
:1024D00006C0B70154E0769567955A95E1F7C701B4
:1024E0008759910989389141A0F52E153F0588F546
:1024F0008D819E8143E0969587954A95E1F7893CC9
:10250000910510F088EC90E02D813E81820F931FA1
:102510008E159F05F0F462177307D8F480911A01A5
:10252000833018F483E080931A0120911801822FE0
:1025300090E0FC01E757FE4F50824682880F991FBA
:10254000FC01EB56FE4FF182E0822F5F20931801D1
:1025500003C0642D852D29D088E087B988B914B8C7
:1025600015B88EE20E94D8016896E2E10C94E4333B
:10257000909168019F5F90936801882369F330927E
:1025800065014092660150926701E6CF81E090912B
:102590004E019F5F90934E018823F1F230924B01E0
:1025A00050924C0140924D01D7CFA0E0B0E0EBED4E
:1025B000F2E10C94CA33A895462F50E0FA01E45793
:1025C000FE4F949033969491A82FB0E0FD01E4570C
:1025D000FE4FE4903396F4907091680120914E0183
:1025E00030E0270F311D232B09F0F1C1A895209170
:1025F0001E0130911F01220F331F220F331F309312
:10260000300120932F0120916D0130916E01220F36
:10261000331F220F331F30932E0120932D012EEBF9
:1026200020932B01C0911801E9E8F1E070E04A0F16
:102630005B1F7C1759F02191A58130E02A0F311DD5
:102640002417350709F456C07F5FF3CFD62FC82F64
:1026500088E088B9E92FE860E7B9E4B8E5B8B8E1FF
:10266000BB2EC12CD12C8D2F0E947B05782E692E7C
:102670008C2F0E947F058C018C199D0997FF03C048
:10268000919581959109039734F0A895BA946801C2
:10269000B110E9CF2FC0EE0C15B8E4B88C2F0E9412
:1026A0007B058135910530F5E5B88C2F0E947B05BF
:1026B0006C018F2D886087B9F8B815B894B8A8E177
:1026C0008A2EA12CB12C8C2F0E947B05582E492ECE
:1026D0008D2F0E947F057C018A199B0997FF03C0FB
:1026E0009195819591090397CCF0A8958A9457010B
:1026F0008110E9CF80911E0190911F0190933001CC
:1027000080932F0180916D0190916E0190932E0125
:1027100080932D0189E180932B0159C1990C94B8C4
:102720008D2F0E947B055C01003C84E4180730F487
:1027300025E8C21621E0D206E8F605C080EBC816EF
:102740008DE4D806B8F624EAE21622E0F20608F094
:102750006CC088E9A816B10468F2C6010E94E305BE
:10276000AC019601A8E9B7EB0E941E339A0140E044
:1027700050E00E94E03229013A01C5010E94E305C0
:102780009C01A8E9B7EB0E941E33850120E030E0F0
:10279000A90198010E94E03288E7C8168FE0D806A8
:1027A00080F4D301C201F2E0880F991FAA1FBB1F5A
:1027B000FA95D1F7BC01CD01620F731F841F951FDD
:1027C00014C088E7A8168FE0B806B0F4DA01C90192
:1027D000E2E0880F991FAA1FBB1FEA95D1F7BC0141
:1027E000CD01640D751D861D971D25E030E040E08C
:1027F00050E00E94E0320CC0D301C201820F931F4F
:10280000A41FB51F9C01AD01569547953795279597
:10281000A4E6B0E00E9433332B013C012CEA420EC7
:102820002DE0521E611C711C79C0672D762D061794
:10283000170708F4B801C52CD42CCE14DF0408F413
:1028400067010617170708F48B01A0901B01B090D1
:102850001C01C8010E94E8059501DC010E941E339D
:102860002B013C01C8010E94E3059C0140E050E0BF
:10287000C301B2010E94E03229013A01CE14DF0403
:1028800008F47601A0901401B0901501B701C601BB
:102890000E94E8059501DC010E941E334701A12C2E
:1028A000B12CA50194010E94E03208378FE018078F
:1028B00080F4D301C20162E0880F991FAA1FBB1FD9
:1028C0006A95D1F7BC01CD01620F731F841F951F5C
:1028D00014C088E7E8168FE0F806C0F4DA01C901F1
:1028E00032E0880F991FAA1FBB1F3A95D1F7BC0190
:1028F000CD01640D751D861D971D25E030E040E07B
:1029000050E00E94E03229013A0108C0420E531EF5
:10291000641E751E769467945794479410911A011B
:10292000143008F0E7CEC1500C2F0D0F202F30E0EF
:10293000E901CD5ADE4F8881220F331F220F331F4A
:10294000F901EE55FE4F8823D9F1C080D180E28095
:10295000F380A30192012C193D094E095F0957FF2D
:1029600007C050954095309521953F4F4F4F5F4F91
:10297000AAE0B0E00E94333324E6C20ED11CE11C71
:10298000F11CA7019601240D351D461D571D0E94FF
:10299000E032232B242B252B09F0ACCE133019F079
:1029A00081E080931A0182E0888380916F01E82F93
:1029B000F0E0EA5AFE4F00838F5F80936F019ACE5A
:1029C000408251826282738281E0888393CECDB748
:1029D000DEB7E0E10C94E633CF93C82FC09595B1F4
:1029E00060FF02C0982B01C09C2395B994B1892B3C
:1029F00084B982E00E94470584B18C2384B985B1F3
:102A0000C823C5B9CF910895A0E0B0E0EAE0F5E1B0
:102A10000C94D0331AE008E08FE3C82E99E0D92E49
:102A200007B908B915B8C4B880E00E947B057C01DD
:102A300081E00E947F05EC0182E00E947F059C01FD
:102A400080911A01893081F488E087B914B8F09236
:102A50000401E0920301D0930601C0930501309375
:102A60000801209307015BC084E0E816F10440F4FC
:102A7000C430D10560F42430310530F399E00BC047
:102A800088EEE81683E0F80610F098E001C099E0BF
:102A9000C83ED34008F49260283E334008F4946066
:102AA00097B9C0E0D0E0A89580E00E9473055C0172
:102AB00081E00E947F057C0182E00E947F0524E185
:102AC000A21625E0B20608F4389A24E1E21625E0C1
:102AD000F20608F4399A843125E0920708F43A9A0C
:102AE00026E0A216B10430F426E0E216F10410F458
:102AF000069738F02196C43F81E0D807A1F6D0921E
:102B00001A01E12CF12CEC16FD0631F00E9435057E
:102B10002FEFE21AF20AF7CF115009F081CFCDB7AB
:102B2000DEB7EAE00C94EC33CF92DF92EF92FF92A3
:102B3000CF932091730130917401409175015091B0
:102B40007601C09185018AE0C82ED12CE12CF12CB0
:102B50008C2FCF5F213A96E8390791E0490751055C
:102B600038F0CA01B901A70196010E94E032F0CF06
:102B700080938501A0912F01B09130010E943333E1
:102B800028E833E140E050E00E94E03220937301F6
:102B9000309374014093750150937601CF91FF906B
:102BA000EF90DF90CF900895A0E0B0E0EAEDF5E17E
:102BB0000C94CE33982F990F980F2FEF260F920F6A
:102BC00090935001E82FF0E0E457FE4F1491262F28
:102BD00030E0F901E457FE4FF490F901E157FE4F60
:102BE000D49190911A01913009F4A1C22091180159
:102BF000A9E8B1E0FD0190E0921791F036816313EE
:102C00000BC03081831308C01C964D915C911D97B9
:102C10004C3D554008F48BC29F5F31961296ECCF25
:102C2000062FC82FD8601092800110927F0181EF8B
:102C300080938501109273011092740110927501B6
:102C400010927601E1DE88E088B9D7B9F4B8F5B81A
:102C50008C2F0E947F055C01802F0E947F05A81A9F
:102C6000B90A14B810925201109251018091510189
:102C700090915201843F914008F0AAC015B914B94F
:102C80000E942F0514B815B80E943605A8958C2F00
:102C90000E947F057C01EA18FB0880915101909108
:102CA00052018E37910528F08BE4E816F1040CF4FC
:102CB0008FC080915101909152012DE2E21621E0E6
:102CC000F20634F401969093520180935101CECFD5
:102CD000892B09F0A4C185E1E81685E0F8060CF41B
:102CE0009EC192DE15B88FE087B988E088B9F12ED1
:102CF000FF0CF4B880E480937B0084E580BF8C2FC8
:102D0000806480937C0087E180937A000E9439057B
:102D10001092520110925101109280001092850081
:102D20001092840087E286BB81E280936F0081E08D
:102D300080937001F5B890911A01809381009530CD
:102D400009F04CC081E090E00C2E01C0880F0A947D
:102D5000EAF780958F7087B9F89483B7817F83BF36
:102D600080917001882389F083B7816083BF789454
:102D7000889583B78E7F83BFF894A8958091510181
:102D80009091520180389C4059F7789410928100BC
:102D9000E0908600F090870010926F0087E98093A2
:102DA0007A0014B815B88C2F0E947F05209133014A
:102DB00030913401821B930B0C9690938801809381
:102DC000870180915101909152018034964040F0EA
:102DD00088E087B988B914B815B8A9C1D7B9BCCFEC
:102DE000809151019091520190937E0180937D01D9
:102DF000F0927C01E0927B0184EF809385018091C9
:102E000051019091520182349105C8F060917B018B
:102E100070917C0180917D0190917E0124E630E0EB
:102E200040E050E00E94E03220937B0130937C012F
:102E300040937D0150937E0186EF80938501A091A0
:102E40007101B091720120917B0130917C01409120
:102E50007D0150917E010E94333320E436E040E052
:102E600050E00E94E03220937B0130937C0140933C
:102E70007D0150937E012093730130937401409340
:102E800075015093760150DE80918501843F09F0F1
:102E900071C0C0907301D0907401E0907501F09002
:102EA000760180EAC8168FE0D806E104F104C0F488
:102EB000A70196012C543F4F4F4F5F4F60EA7FE0D0
:102EC00080E090E00E94E032C20ED31EE41EF51EA8
:102ED000C0927301D0927401E0927501F092760174
:102EE000C0907301D0907401E0907501F09076016C
:102EF000C114D10421E0E206F10428F4D092B30118
:102F0000C092B20106C081E090E09093B30180933B
:102F1000B2018091500190E08C5D9C4F0E945B3427
:102F200090E0A0E0B0E0B701A6018C159D05AE05CC
:102F3000BF0568F4481B590B6A0B7B0B4093730168
:102F400050937401609375017093760113C04C5EC9
:102F50005F4F6F4F7F4F481759076A077B0710F481
:102F60000E94FF0A10927301109274011092750171
:102F70001092760114B98091730190917401A0911F
:102F80007501B09176014997A105B10508F420CFEC
:102F9000C12CD12C80911801882329F080911A012D
:102FA000853009F015CF88E080931A018091850162
:102FB000909186019817C4F089130ACF809073010D
:102FC00090907401A0907501B090760140917701C6
:102FD000509178016091790170917A0148155905F5
:102FE0006A057B0508F0F4CE40917301509174019D
:102FF000609175017091760140937701509378014B
:103000006093790170937A0180938601D092820156
:10301000C092810100938301C0938401D9CEC7017E
:10302000C12CD12C20915101309152012C153D051C
:1030300060F00E9430058C2F0E947F058A199B0941
:10304000A8952FEFC21AD20AEDCF5701A81AB90AD4
:103050001A141B049CF439ECA316B1040CF0B8CE7E
:1030600028EE33E0D5010E942D3397010F2C000C80
:10307000440B550B0E94E032690102C0C12CD12CD7
:1030800080915101909152010196A0E0B0E08093AF
:103090007B0190937C01A0937D01B0937E01C701D9
:1030A0008A0D9B1D91D020917B0130917C01409134
:1030B0007D0150917E01DC010E94333360937B01DE
:1030C00070937C0180937D0190937E0160937301E6
:1030D00070937401809375019093760187EF8093CC
:1030E000850122DD8090730190907401A09075019C
:1030F000B090760187E093E00E945B34A8EEB3E0E5
:10310000A81BB10987FDB395A50194010E943D3329
:1031100024E630E040E050E00E94E032209373016A
:1031200030937401409375015093760133CFCDB73E
:10313000DEB7ECE00C94EA331F920F920FB60F92B9
:1031400011248F939F93B59904C0809170018111D0
:1031500009C0B59B10C080918600909187008A3F7E
:10316000910548F4809151019091520101969093FC
:103170005201809351019F918F910F900FBE0F903C
:103180001F9018951F920F920FB60F9211248F93D4
:103190009F9310927001B09B10C080918600909117
:1031A00087008A3F910548F4809151019091520126
:1031B000019690935201809351019F918F910F90AE
:1031C0000FBE0F901F9018950F9221E08C3292073E
:1031D00010F48CE291E08C52914069E170E00E9421
:1031E000B93299E16B3210F0982F6BE2981BE9EA43
:1031F000F2E0E60FF11DE60FF11D9F93CF010E9453
:103200005B34482F3196CF010E945B34582F3196A2
:10321000CF010E945B34282F3196CF010E945B348E
:10322000382F6F91421B530B649FC001659F900D17
:1032300011240C9669E170E00E94B932620F731F8D
:10324000CB010F900895A0E0B0E0E9E2F9E10C9421
:10325000CE3388E893E190931F0180931E019093F1
:10326000300180932F018EEB80932B01C8E0C8B909
:1032700088E187B90E943E05C7B984E00E947B05BA
:10328000AC018B5C9840833F9140A0F481E0809337
:103290003A0120912F0130913001AFEBB9E00E944B
:1032A0001E339A0140E050E00E94E03230931F014B
:1032B00020931E0180911E0190911F019093300177
:1032C00080932F018EE00E947F058EE00E947B0597
:1032D00090933401809333010E944E0695DB88E081
:1032E000F82EF8B8C9E0C7B985E185B9D1E0D4B9FD
:1032F00080E00E947B058C019AE0D92ED7B824E0AB
:10330000B22EB4B881E00E947B05080F191F3CE083
:10331000E32EE7B840E1C42EC4B882E00E947B05EA
:10332000080F191F15B8C8B9C7B9D4B980E00E94F1
:103330007B050E94E305EC01D8B8D7B8B4B881E0AA
:103340000E947B050E94E305C80FD91FE8B8E7B8C3
:10335000C4B882E00E947B050E94E305C80FD91F14
:10336000F7B8F8B814B820912F01309130016901F5
:10337000CC0CDD1CC20ED31EC01AD10ACC1ADD0A39
:10338000E12CF12C9801A0E9BAE10E941E33A701BB
:1033900096010E94E03249015A013093390120938D
:1033A00038019E01A0E9BAE10E941E33A7019601EF
:1033B0000E94E03230933201209331012057354E84
:1033C00030931C0120931B0180E7881A85EE980A30
:1033D000909215018092140189E180932B01CDB761
:1033E000DEB7ECE00C94EA33CF92DF92EF92FF92DB
:1033F0000F93CF93DF93F82ED62FC42F0E940E0287
:1034000088E091E00E947C0216D26D2F8F2D0E94E1
:10341000442BC090B601D090B701E090B801F09075
:10342000B9018091010187FD05C0C114D104E104F7
:10343000F10421F084E091E00E947C028D2F0E9433
:103440000E02C114D104E104F104A1F10E941102A1
:10345000809156010E947D03CC2309F47EC08091A7
:103460003B018D3028F490E0885D9C4F0E947C02E7
:1034700080E00E94F702CD28CE28CF2801F160918C
:10348000B6017091B7018091B8019091B90103E044
:1034900028E447EF0E94050487E191E00E947C0246
:1034A00089E393E00E94633422E046E464EF0E94E3
:1034B000EF041FC0C111D3CF80E00E94F7028091BA
:1034C00056010E947D03809101018E3F94F481E3B7
:1034D00091E00E947C026091090170910A01809143
:1034E0000B0190910C0103E028E4409101010E943E
:1034F00005048091AE019091AF01A091B001B0910F
:10350000B101892B8A2B8B2BF1F080E00E94F7020E
:103510006091AE017091AF018091B0019091B101C5
:1035200004E028E440E00E94050482E191E00E946A
:103530007C0223E040E26FEF8091B4019091B501ED
:103540000E94EF0407C080E00E94DE0280913E01ED
:10355000811107C00E94D80204C080E00E94F702D7
:103560008ECFDF91CF910F91FF90EF90DF90CF90B2
:103570000895CF92DF92EF92FF920F93CF93C82FCF
:103580000E943A02809183010E940E028DE491E034
:103590000E947C0231D5609183018091840185D3A2
:1035A0007C019093800180937F01C0908101D09035
:1035B00082018AEFE8168FEFF80678F4C114D1047F
:1035C00041F081E090E0C11102C080E090E0892BE1
:1035D00021F089E091E00E947C02809184010E94A8
:1035E0000E02CC2359F090913B018DE0891B0E9483
:1035F000140289E690E00E947C0215C0809181014E
:1036000090918201892B69F084E391E00E947C0211
:1036100022E045E26FEF80918101909182010E944A
:10362000EF040E94D8020E944802609177017091D5
:1036300078018091790190917A0104E026E440912B
:1036400086010E9405048AEFE8168FEFF80668F4F9
:103650008CE391E00E947C0222E044EF6EEF8091C7
:103660007F01909180010E94EF040E94D802CC2338
:1036700091F0CD2881F080E00E94F70285E391E08F
:103680000E947C0222E045E26FEF809181019091DF
:1036900082010E94EF040E94D802CF910F91FF9007
:1036A000EF90DF90CF9008958F7051F488EC0E94D6
:1036B00047050E9448020E94580B88EC0C9447056D
:1036C00008958F3021F490913501913011F08F5F82
:1036D000089580E00895CF9384E790E00E942F261C
:1036E000C0E00E94F00660E082E00E94D51262E035
:1036F00080E00E94D5120E943A0280916F018823D7
:1037000029F041E062E080E06FDE0FC084E790E0E6
:103710000E947C0282E393E00E947C020E944802A5
:103720008FE30E94D8010E94D8028C2FBDDF88EE63
:1037300093E00E94F105811105C08C2FC2DFC82FD4
:103740008A3F78F20E944202CF9108950F931F930F
:10375000CF93DF93C0E0D8E012EF0DE00E94F006B7
:1037600060E082E021DAD0931A0180918501843FE4
:10377000E1F48091730190917401A0917501B09171
:10378000760184369105A105B10578F440E060E04A
:1037900082E00E94EF28609373017093740180931C
:1037A0007501909376011093850180918501823F88
:1037B000ACF0809386018091730190917401A09187
:1037C0007501B09176018093770190937801A09371
:1037D0007901B0937A0181E0CCDE18C00E943A02F0
:1037E0008DE690E00E947C0280913B01902F981B17
:1037F000892F0E94140289E690E00E947C020E94B8
:1038000048028FE30E94D8010E94D8028C2F4CDF1F
:1038100080ED97E00E94F105811106C08C2F51DFE9
:10382000C82F8A3F08F49ACF0E944202DF91CF91BD
:103830001F910F910895A4E1B0E0E1E2FCE10C9446
:10384000C83382E08093010180911A01813009F030
:1038500028C280916F01813009F023C20091560186
:1038600024E0029FF0011124EE55FE4F80819181EA
:10387000A281B381893032E59307A105B10508F033
:1038800010C24C0110E0802F123028F40E94730304
:10389000582E492E03C00E9473032C01E42DF0E042
:1038A000E157FE4F2490852D90E0FC01E457FE4F38
:1038B000E49115B828E028B930EF83169104B8F4E4
:1038C00010FD15C0A0901401B090150120E9A21AB6
:1038D0002AE1B20A21E030E0052C02C0220F331F9A
:1038E0000A94E2F7C9018860822987B908C0E4B95F
:1038F000822D886087B9A0901401B0901501F4E181
:103900003F2E852D0E9477053C01842D0E947F0566
:1039100034E06316710410F4049718F03A943110EF
:10392000F0CF80E480937B0094E590BF852D806488
:1039300080937C0027E120937A00E12CF12C1092F7
:103940008000109285001092840087E286BB0E945E
:103950003905312F3170332E10FD05C081E8809379
:10396000810028B808C028B80E94420580E286BBC2
:1039700081E88093810086B385FF13C098E098B9F1
:103980001092810020E226BB2091860030918700B2
:10399000690140918400509185002417350770F02B
:1039A00014C080FFE8CF31E036BBA89597012F5FA8
:1039B0003F4F7901203A3105F1F6E0CF80FF05C095
:1039C00081E086BB9FEFE91AF90A87E980937A00C4
:1039D000E4E12E2E852D0E9477053C01842D0E9466
:1039E0007F0524E06216710410F4049718F02A94FD
:1039F0002110F0CF4090380150903901480C591CEB
:103A00004A0C5B1C209116013091170180E9A81621
:103A10008AE1B806B0F491EEC916D104E104F104CC
:103A200038F4C60165E070E00E94B932645101C00B
:103A300069E128523109261B310967FD339586E07B
:103A400009C0C20168E57BE10E94B93287E0860FB8
:103A5000285D3F4F90E0A0E0B0E08C159D05AE05DD
:103A6000BF0528F4C81AD90AEA0AFB0A03C0C12C08
:103A7000D12C7601332029F08AE3C80ED11CE11C39
:103A8000F11C90EAE916F10418F0C12CD12C760152
:103A90008BE0C816D104E104F10428F091E0C91AC2
:103AA000D108E108F10840912F0150913001612CBB
:103AB000712CA8EEB3E00E941E33698B7A8B8B8B3E
:103AC0009C8B9501DA010E941E33A30192010E9492
:103AD000E0324427552769897A898B899C890E941D
:103AE000E032C9010E94A606FC01A3019201C701B0
:103AF000B6010E949E322B013C01CF01A0E0B0E054
:103B000074E0880F991FAA1FBB1F7A95D1F7BC01DB
:103B1000CD016B5F7F4F8F4F9F4F2AE030E040E039
:103B200050E00E94E03244275527C301B2010E94B1
:103B3000E032E12FF0E0A1E0B0E0AC0FBD1F84E087
:103B4000189FA00DB11D11242D933D934D935C93AF
:103B50001397311016C094E1C916D104E104F104A1
:103B600080F03196EE0FFF1FEE0FFF1F81E090E017
:103B70008C0F9D1FE80FF91F2083318342835383ED
:103B80001F5FA8951F5F143008F47DCE88E088B9C8
:103B900084E00E94470591E00D811E812F813885C8
:103BA00049815A816B817C814017510762077307F5
:103BB00008F090E00D851E852F85388949855A8546
:103BC0006B857C85401751076207730710F483E00B
:103BD00001C082E0E92FF0E0EE0FFF1FEE0FFF1FA4
:103BE00021E030E02C0F3D1FE20FF31FD90134E03C
:103BF000839FA00DB11D11240D911D912D913C911C
:103C000040815181628173810417150726073707A8
:103C100008F0892FE1E0F0E0EC0FFD1F94E0899FB0
:103C2000E00DF11D11244081518162817381409327
:103C3000090150930A0160930B0170930C0180FD00
:103C400008C020EF8216910420F48BEF80930101CD
:103C500017C08CEF80930101CB01BA016B5F7F4FDE
:103C60008F4F9F4F2AE030E040E050E00E94E0326A
:103C70002093090130930A0140930B0150930C01EA
:103C80008091090190910A01A0910B01B0910C0162
:103C9000892B8A2B8B2B11F41092010188E087B9B4
:103CA00014B86496E2E10C94E433AEE1B0E0EBE5E5
:103CB000FEE10C94C833662EB82E860F89832091BE
:103CC0001A01283059F520917701309178014091FF
:103CD000790150917A0157FD15C01091860109C0F4
:103CE000CA01B9012AE0312D412D512D0E94E03247
:103CF0001F5F173FACF391F4243160E036074105B4
:103D0000510518F48FEF9FEF44C1173F39F480E05D
:103D100028178DE738074105410510F020E03DE701
:103D20002C8B3D8B27EDA22EEFE8F1E0E60DF11D87
:103D3000859188608E87EFE8F1E0EB0DF11D8591AC
:103D400088608F87ECE8F1E0E60DF11D7590ECE8F6
:103D5000F1E0EB0DF11DC59090EC692AB92A81E0E4
:103D6000E82EF12C012D112D8E831F8218861986C5
:103D70001A861B861C861D86188E198E1B8E1A8E1F
:103D80000E94041588E088B960927C000E943A0580
:103D90003F8537B975B874B855E05A95F1F700000A
:103DA00014B815B8DD243E8537B975B874B860927B
:103DB0007C00A895A0927A0080917A0086FDFCCFC5
:103DC0002090780030907900B0927C004C2DE5D0A6
:103DD0002091780030917900288B398B3F8537B955
:103DE000C5B8C4B8A895B0927C00A0927A00809122
:103DF0007A0086FDFCCF6091780070917900609226
:103E00007C00472DCAD0409178005091790014B8B9
:103E1000CB01820D931DE80EF91E011D111DEA82D2
:103E2000FB820C831D8388899989840F951F2E81BD
:103E30003F8168857985280F391F611D711D2E838B
:103E40003F836887798722E32417150650F075B8F9
:103E500074B80E94440514B815B8888D8395888F6E
:103E600007C0483E73E0570718F08A8D83958A8F04
:103E7000888999892817190660F03E8537B9C5B831
:103E8000C4B80E94440514B815B8898D8395898FEC
:103E900007C0883E73E0970718F08B8D83958B8F52
:103EA000D3945D2D5F3F49F05F3731F45C2D550FA2
:103EB000C50E572D550F750E76CF40903801509096
:103EC0003901440C551C9201E4E0240D351DEA959E
:103ED000E1F72901570168016E807F808884998409
:103EE00020911A012830C1F46C897D89812D912D92
:103EF00065507040804090409B01AC010E949E3212
:103F00009B01AC0160E779E786E190E00E94E03236
:103F1000621A730A840A950AA614B704C804D9045D
:103F200028F46A187B088C089D0803C0662477244F
:103F30004301B20180E090E09301A4010E949E320F
:103F40009501A6010E94E03283E093E07981870F1A
:103F5000911D0E945B34682EC90160E170E00E94EF
:103F6000B932260F371FC9016816190618F48619C9
:103F700091090FC08C5E9F4F8615910540F48C8986
:103F80009D89843981E1980710F00E94FF0A812DF4
:103F9000912D6E96E2E10C94E43310928100109220
:103FA000800010926F0010928B0010928A0057E0F0
:103FB00056BB5FEF509385005093840055E05093BB
:103FC0007B0057EB50937A0051E0509381005FE4FF
:103FD0005A95F1F70000000045B944B95BE05A95E5
:103FE000F1F714B815B81092810080917A0084FF1F
:103FF000FCCF80937A000895A0E0B0E0E2E0F0E228
:104000000C94CE338091810190918201892B09F02B
:104010009EC0E0918301F0E0E157FE4FD491D8605B
:10402000E0918401F0E0E457FE4FC4910E94041532
:1040300088E088B915B8D7B9C4B9809184010E94C5
:104040007F058C01D09186018CE08D0F843008F0C3
:104050007EC08091770190917801A0917901B09113
:104060007A01D15F2AE0822E912CA12CB12CBC01C7
:10407000CD016B5F7F4F8F4F9F4FA50194010E9431
:10408000E03269017A01DA01C901DF5FD73079F7DF
:1040900029E8C21623E1D206E104F10408F057C072
:1040A000059708F454C0C5B9C4B9C0E0D0E0CC1538
:1040B000DD0520F40E9440052296F9CF14B815B80A
:1040C000A89585E080932B01809184010E947F0553
:1040D0000817190720F4EC01C01BD10B02C0C0E087
:1040E000D0E0A12CB12CAC14BD0430F40E944005EA
:1040F0008FEFA81AB80AF7CF809184010E947F053C
:1041000029E120932B01A8950817190718F4801BA3
:10411000910B02C080E090E08C179D0788F49E010F
:10412000281B390B69F0A4EFB1E00E941E339E01F9
:1041300040E050E00E94E032309382012093810100
:104140000E94041588E087B988B914B815B8CDB7AE
:10415000DEB7ECE00C94EA33A7E0B0E0E2EBF0E28B
:104160000C94C83380EA91E07AD520EF2B835498E1
:104170000E94350514BC16BC10920E0110920F015E
:10418000109210011092110131E035BB30936E0096
:104190001092800085E294EF90938B0080938A00C8
:1041A000E1E0F0E0F0938900E09388001092850050
:1041B0001092840083B5816083BDF6E0F6BBF09376
:1041C0006F00789424E02093810032E339831A82CF
:1041D0000E942E05A8954F9902C061E06A8385B5BB
:1041E00081111FC015BC86B580930E010E9442024A
:1041F00086E60E94D8010E941D0260910E01709116
:104200000F01809110019091110147E00E94040577
:10421000549880918100882351F08FE30E94D80147
:1042200006C08981815089838111D2CFDBCF109262
:10423000810010926F0020910E0130910F0140918A
:10424000100150911101DA01C9010197A109B109C9
:104250008336934CA105B10508F00BC1AAE0B0E08C
:104260000E943333DC01CB014096A11DB11D24E037
:10427000B695A795979587952A95D1F7BC01660FB6
:10428000771F70936A016093690154980E94350505
:1042900016BC10920E0110920F0110921001109294
:1042A0001101F1E0F5BBF0936E0010926C011092D9
:1042B0006B0124E02BBB80916800846080936800D0
:1042C000789480916D00806180936D0019820E94C6
:1042D0002E05A8954F9902C031E03A8380916D0078
:1042E00084FF05C069816F5F69836A3F81F715BCF0
:1042F00080916D008F7E80936D00809168008B7F30
:104300008093680086B580930E010E94480284E580
:104310000E94D8010E941D0260910E0170910F0150
:104320008091100190911101E0916901F0916A0171
:10433000FD83EC8324ED30E340E050E00E94433302
:10434000EC81FD81612C712C43015F01C12CD12CCA
:10435000E12CF12C00E010E00E946C3349014F8306
:104360005E831B012C012C813D812038310530F00A
:1043700007E023E745EFB4018F8117C084E6A82E3C
:10438000B12CC12CD12CE12CF12C00E010E09401D7
:104390004F815E81C2010E946C33F22FE42F07E04F
:1043A00023E747EF6F2F732F8E2F952F0E94050461
:1043B00039813A3F21F48FE30E94D8015AC0940119
:1043C0004F815E81B101C201263E354B4105510549
:1043D000610571058105910509F008F44AC00E9444
:1043E0003A0286E60E94D8010E941D0294014F8184
:1043F0005E81B101C20154012115FAEC3F07FAE9CF
:104400004F07FBE35F076105710581059105A1F089
:1044100098F06A017101820120E030E04AE85DE530
:1044200068E775E483E691E00E946C33F22FE42F95
:1044300007E028E44AEF13C0CF80DE8071018201DB
:1044400020E030E44AE750E163EF7AE580E090E075
:104450000E946C33F22FE42F07E028E44DEF6F2F1A
:10446000732F8E2F952F0E9405048AE70E94D80192
:10447000549810926E0080ED97E00E94F1052A8119
:10448000820F29F43B8131503B83311170CE279646
:10449000E2E10C94E4331F920F920FB60F921124B5
:1044A0008F939F93AF93BF93789480910E019091D7
:1044B0000F01A0911001B09111019F5FAF4FBF4F4D
:1044C00080930E0190930F01A0931001B0931101FE
:1044D000BF91AF919F918F910F900FBE0F901F9042
:1044E00018951F920F920FB60F9211248F9386E0AA
:1044F00085BD8F910F900FBE0F901F9018951F9242
:104500000F920FB60F921124A8951092810015BC3E
:104510000F900FBE0F901F9018951F920F920FB61D
:104520000F9211242F933F938F939F9380916B0150
:1045300090916C01892B11F481E085BD20916B0174
:1045400030916C018091690190916A0128173907B7
:1045500030F015BC80916D008F7E80936D0080914E
:104560006B0190916C01019690936C0180936B01AB
:104570009F918F913F912F910F900FBE0F901F90A1
:1045800018958B3008F08B50811103C08CE092E0BD
:1045900031C0813019F480EA91E02CC0823019F4E6
:1045A00083EE91E027C0833019F488ED91E022C0BA
:1045B000843019F48FE790E01DC0853019F484E74A
:1045C00090E018C0863019F48DE690E013C0873073
:1045D00019F487EC91E00EC0883019F488EB91E073
:1045E00009C0893019F48AEF91E004C08A3021F4BF
:1045F0008FEE91E00E947C020E94D8020C9435025A
:1046000008950F93CF938FE790E029D3C0E01092E5
:104610001A0160E082E038D380911A018830D1F528
:104620000E943A0283E40E94D8010E941D02609118
:104630007701709178018091790190917A0103E07E
:1046400026E4409186010E9405040E94D8026091F0
:1046500083018091840129DB9093800180937F0105
:104660000E9448028DE391E00E947C0280917F01CC
:10467000909180018A3F2FEF920730F422E044EFBF
:104680006EEF0E94EF0403C08FE30E94D8010E94E6
:10469000D8020AC00E943A028FE790E00E947C0292
:1046A0000E94D8020E9403038C2F0E94541B88EEA4
:1046B00093E00E94F105811106C08C2F02D8C82F0B
:1046C0008A3F08F4A4CFCF910F9108950895A4E0F4
:1046D000B0E0EDE6F3E20C94C83383EE91E0BFD294
:1046E00080E18093800010926F0081E090E09093D1
:1046F00089008093880010928B0010928A0083E0DA
:1047000086BB1092820088E08093810015B891E109
:1047100094B988B989E087B9229A80938100312CB5
:1047200020E0FAE02F2E31E03B83812C912C5401C4
:10473000839441E14C83832D90E00A966EE170E012
:104740000E94CD326A83062F621781F00E943A02DE
:1047500083EE91E00E947C0210E0101728F48EE2B4
:104760000E94D8011F5FF9CF0E94D8025C815231AC
:10477000B8F0C701B601A50194010E94E0326B01B7
:104780007C018B81622D0E94AD32A92FB0E0A50182
:1047900094010E943333C60ED71EE81EF91E0CC0CA
:1047A0008B81622D0E94AD32A92FB0E0A50194014A
:1047B0000E9433336B017C010E9448028B8182117D
:1047C00009C081E09C81923108F480E089838111E5
:1047D00007C001C019822C81263120F082E503C078
:1047E0008CE301C08EE30E94D8014C81C701B60161
:1047F0000E940405C701B6017C5D8B409F4FA70155
:104800009601220F331F441F551F0E94E032CA0138
:104810004F3F510539F030F08DE08093810080E00A
:1048200094E01FC04034510530F08CE0809381004B
:1048300080E091E016C04830510530F08BE0809365
:10484000810080E490E00DC0892B31F09AE09093D4
:10485000810088E090E005C089E08093810081E0DC
:1048600090E02C01612C712CCA01B901A3019201C5
:104870000E94E03221503109309389002093880052
:104880008091880090918900892B31F421E030E0FB
:10489000309389002093880000918800109189004E
:1048A00060E072E18AE790E0A30192010E94E032A9
:1048B000A4E6B0E00E94333398012F5F3F4F40E001
:1048C00050E00E94E03229013A01A4E6B0E0A701DD
:1048D00096010E943333A3019201261B370B480B2C
:1048E000590BCA01B90102E228E44EEF0E94050407
:1048F0008AE70E94D8010E94D80280ED97E00E94CA
:10490000F105882309F449C0883C60F010928100C9
:104910001092800088E087B914B822982496E2E1CA
:104920000C94E433813598F139813323E9F04C81DB
:1049300041504C83C501B4012AE030E040E050E032
:104940000E94E03249015A01C701B6010E94E032DB
:10495000CA01B9012AE030E040E050E00E94E032B4
:104960006B833AE0232E37C05C81563150F55F5F90
:104970005C83563111F425E1222EAAE0B0E0A501B6
:1049800094010E9433334B015C011B8224C08B30A5
:1049900018F08B818F5F8B83312C2B81822F90E0DD
:1049A000622D70E06F5F7F4F0E94CD328B83832D2D
:1049B0000E94611B382E3FEE381708F4A7CF2A81DA
:1049C000BACE8AE0282E41E04B83812C912C5401F1
:1049D000839451E15C83312CF2CFA0E0B0E0E3EFAF
:1049E000F4E20C94CA3388ED91E039D183E28093EC
:1049F000800010926F008FEF90E090938B00809377
:104A00008A0083E086BB1092820015B881E184B9E8
:104A100088E088B989E087B9229A21E030E03093B4
:104A20008900209388008093810010E0C0E0D2E3E9
:104A300000E084E6C82ED12CE12CF12C88248A9445
:104A400093E0992EA12CB12CDC17C1F1D43618F0CB
:104A5000CCE9CD0F01C0CD2F2C2F30E0AFEFB3E06C
:104A60000E941E336E5C7F4F8F4F9F4FA7019601B0
:104A70000E94E03229013A0130938B0020938A0092
:104A80000E944802A8EEB3E0A30192010E943333D2
:104A900061507E4F8F4F9F4FA50194010E94E032DD
:104AA000DA01C90125E045E26FEF0E94EF040E94A0
:104AB000D802093218F08CE30E94470580E496E0A2
:104AC0000E94F105082F833868F088E087B91092BA
:104AD00081001092800014B82298CDB7DEB7E0E1D3
:104AE0000C94E633833310F0DAE003C0882321F01E
:104AF000D1E0DC0F10E001C0DC2F812F0E94611B90
:104B0000182F803F08F4A0CFE0CF0F931F93CF93CF
:104B1000DF9387EC91E0A3D087E093E00E945B34C1
:104B2000C82FD0E00E9448020C2F0C2E000C110B55
:104B3000C7FF0BC08DE20E94D80123E045E26FEF72
:104B400088279927801B910B04C023E045E26FEF73
:104B5000C8010E94EF040E94D80280E496E00E94FF
:104B6000F105882331F0823888F48932C8F0CF5FAC
:104B7000D0E0C13514F0C55603C0CC3E0CF4CB597F
:104B80008D2F0E94611BD82F803F60F26C2F87E031
:104B900093E00E946834DF91CF911F910F910895A7
:104BA000C150E6CF813019F480E0D6CA0895823032
:104BB00011F48DCD0895833011F40FCF0895843012
:104BC00011F41FCD0895853019F40C946B1B0895D2
:104BD000863029F40E9442020C94A61B0895873067
:104BE00011F493CF0895883021F481E10C946D077E
:104BF0000895893011F484C108958A3011F40C9419
:104C000013070895CF93DF9387E192E028D0D0E097
:104C1000C0E00E9448028C2FB4DC80E49FE10E9437
:104C2000F1058111D0E090913501913009F4D0E087
:104C3000823340F0CC2379F08C2FB4DF87E192E00F
:104C40000ED002C08111CF5FDF5FDE3620F4CB30A3
:104C500000F3CB50DECF80E0DF91CF910895CF936A
:104C6000DF93EC010E944202CE010E947C02C4E666
:104C700082E00E9447054F9902C0C150C9F70E94C7
:104C80004802DF91CF910895A0E0B0E0EAE4F6E2B7
:104C90000C94D133182F062F862F90E0FC01E1579A
:104CA000FE4FE491E860FE2EE12FF0E0E457FE4F66
:104CB000C491FC01E457FE4FD491109280011092F0
:104CC0007F0110927301109274011092750110927D
:104CD000760187EF809385010E94041588E088B9EA
:104CE000F7B8D4B9D5B9812F0E947F057C01802FF8
:104CF0000E947F05E81AF90A14B810925201109226
:104D0000510120E030E05CE2C52EDD24D394DAE0EE
:104D100064E6B62E8091510190915201843D9043FA
:104D200008F071C0C5B98091510190915201892B51
:104D300089F0F601E21BF30B609151017091520171
:104D4000D29FC001D39F900D11240E94B932E61763
:104D5000F70750F4C4B90E94390514B88091510185
:104D600090915201019628C0809151019091520179
:104D70000B97C8F06091510170915201B29EC00131
:104D8000B39E900D11240E94B9326E177F0758F41C
:104D9000C4B90E942E0514B880915101909152011E
:104DA0008C599F4F09C0C4B90E94340514B8809132
:104DB0005101909152010A969093520180935101B2
:104DC00015B80E943B05A895812F0E947F059C0184
:104DD0002E193F0980915101909152018B319640DB
:104DE00018F0253231057CF02D3281E038070CF4C3
:104DF00091CF8091510190915201019771F4253129
:104E000085E0380754F088E087B988B914B815B838
:104E1000CDB7DEB7E9E00C94ED338091510190916C
:104E20005201880F991FA0E0B0E080937B0190931E
:104E30007C01A0937D01B0937E01C90168E270E01E
:104E40000E94CD32CB01820F931F0E94E418209163
:104E50007B0130917C0140917D0150917E01DC010C
:104E60000E94333360937B0170937C0180937D01BA
:104E700090937E0160937301709374018093750128
:104E8000909376010E949415C0907301D0907401A4
:104E9000E0907501F090760187E093E00E945B342A
:104EA000A8EEB3E0A81BB10987FDB395A701960151
:104EB0000E943D3320E137E240E050E00E94E032C2
:104EC00020937301309374014093750150937601E0
:104ED00088E080931A012093770130937801409302
:104EE000790150937A018091850180938601109217
:104EF000820110928101009383011093840183CF7A
:104F0000CF92DF92FF920F931F93CF93DF930E9474
:104F1000420285EF90E00E947C020E94480281EBF1
:104F200090E00E947C0285E093E00E945B3423E0E5
:104F300040E26EEF90E00E94EF0486E093E00E9472
:104F40005B3423E040E26EEF90E00E94EF0484E0E7
:104F500093E00E945B3423E044EF6EEF90E00E9408
:104F6000EF0488E99AE30E94F1050E9442028AEA6E
:104F700090E00E947C0223E044EF6FEF80913101CA
:104F8000909132010E94EF040E94480283EA90E06F
:104F90000E947C0223E044EF6FEF809138019091F2
:104FA00039010E94EF0488E99AE30E94F1050E940A
:104FB00042028FE990E00E947C0289E293E00E9425
:104FC0005B3490E042970E9449038AE293E00E949A
:104FD0005B3490E042970E94490386E293E00E948E
:104FE0005B3490E023E046E464EF42970E94EF04D4
:104FF0000E94480283E00E94140285E293E00E942E
:105000005B3490E042970E94490388E293E00E945B
:105010005B3490E042970E94490384E293E00E944F
:105020005B3490E023E046E464EF42970E94EF0493
:1050300088E99AE30E94F1050E9442028DE190E026
:105040000E947C028BE293E00E9463340E9434034E
:105050000E94480286E190E00E947C028DE293E08B
:105060000E945B34082E000C990B0E94340360E010
:1050700081E00E942502C0E0FC2EFF0CFC0ED0E077
:10508000FA94CD17D9F10F2D0D0F10E0000F111F5D
:10509000C8018A5E9C4F0E9463346C01C801885F1E
:1050A0009C4F0E9463348C018091A101882339F0C8
:1050B00088E99AE30E94F1050E94420203C080E061
:1050C0000E94DE0287E990E00E947C028C2F0E9401
:1050D0000E028AE30E94D8018D2F0E940E0280E00A
:1050E0000E94DE0223E040E26EEFC6010E94EF0460
:1050F00023E046E462EFC8010E94EF04DF5FD33093
:1051000009F0BFCFCF5FC33009F0B6CF88E99AE38B
:105110000E94F105DF91CF911F910F91FF90DF90D9
:10512000CF90089508958F929F92AF92BF92CF92A1
:10513000DF92EF92FF92FC014C01A12CB12C740183
:10514000DD24CC244F2F55279F01DF010E941E3301
:105150009C013695279536952795C9019695879593
:1051600096958795BC0176956795649FD001659F5C
:10517000B00D749FB00D1124BF01729562956F70D0
:1051800067277F706727460F571FE40FF51F281BFF
:10519000390BA90160E070E04E0F5F1F611D711DAA
:1051A000CD0123E0969587952A95E1F7A81BB90BC9
:1051B0009A01AB012A0F3B1F411D511DC501B401CE
:1051C0000E949E326C0D7D1D8E1D9F1DFF90EF90E5
:1051D000DF90CF90BF90AF909F908F900895A1E007
:1051E000B2E0E5EFF8E20C94C833782E162F642E67
:1051F0000E940415E72DF0E0E457FE4FF490BF2C19
:10520000BB0CE12FF0E0E157FE4FE491E860E7B915
:1052100015B8F4B8872D806480937C000E943A050D
:10522000262D2170CF5FDD4F2883C150D24060FC16
:1052300002C0AB2C01C0AF2CF0E2DF2E80E090E08A
:10524000CF2CEA2C0B2D2A2D47EEBE016F5F7F4F2E
:105250000E943400DA9480E490E0D110F1CF14B8C9
:10526000C12CD12C7601212C312C210106E4812C7A
:10527000E0E89E2EA02EB12CCF5FDD4F3881C150CB
:10528000D240F501EE0FFF1F41E050E04C0F5D1FD3
:10529000E40FF51F80819181332321F09401281BB5
:1052A000390BC90140DF280E391E411C511C9501E4
:1052B000DC010E941E33C60ED71EE81EF91E0F5FCA
:1052C000073E21F0063BB1F601ECD4CFC201B1019B
:1052D00026E930E040E050E00E94E032ADE4B6E57F
:1052E0000E943333A7019601261B370B480B590B3D
:1052F00066E056954795379527956A95D1F76CEAFC
:1053000077E485E896E80E94E03269017A0161FC61
:105310001BC0872D880F780E1150710E872D90E0DD
:10532000CF5FDD4F3881C150D240880F991F3323A2
:1053300019F0885F9C4F02C08A5E9C4F0E946334C4
:10534000C81AD90AE108F108C701B601CF5FDD4FDD
:10535000E2E10C94E4334F925F926F927F928F92CE
:105360009F92AF92BF92FF920F931F93CF93DF93C1
:10537000C0E0FC2EFF0CFC0ED0E0FA94CD1709F42F
:1053800040C042E06D2F8C2F2ADF2B013C0143E00F
:105390006D2F8C2F24DF4B015C010E94420287E9B4
:1053A00090E00E947C020E9411028C2F0E940E024B
:1053B0008AE30E94D8018D2F0E940E020E941102E2
:1053C0000E94480224E040E26EEFC2010E94EF0416
:1053D00024E046E462EFC4010E94EF040F2D0D0F9C
:1053E00010E0000F111FB201C8018A5E9C4F0E949D
:1053F0007634B401C801885F9C4F0E9476340E94C5
:10540000D802DF5FD33009F0B9CFCF5FC33009F0E6
:10541000B0CF0E943A0287E991E00E947C020E948C
:10542000D80288E20E944705DF91CF911F910F912A
:10543000FF90BF90AF909F908F907F906F905F9004
:105440004F900895A2E1B0E0E8E2FAE20C94C8338C
:105450002C017C836B83DD24D3942D2C312C83E0B1
:10546000D89EA00111245C874B87F101EE0FFF1F2E
:10547000EE0FFF1FFE87ED87812C30E4932E50E066
:10548000612C712C18861F82A12CB12C1A821982D2
:105490001E821D8240E0C12CE0E0F0E020E030E020
:1054A00061E070E08FEF90E082199309988B8F870D
:1054B0000C2D10E08F859889081719070CF05FC034
:1054C000D801A20DB31DAA0FBB1FA40DB51D8D9150
:1054D0009C91E80FF91FD801AA0FBB1FA40DB51DA1
:1054E0008D919C91280F391FCD1408F48DC0D801DF
:1054F000A219B309AA0FBB1FA40DB51D0D90BC9135
:10550000A02D2A1B3B0BE81BF90B7901EE0EFF1EA9
:10551000C9018E1B9F0B89879A87D701B695A795DE
:10552000B695A795A80FB91FB7FD9FC0E217F3075F
:1055300008F072C0513009F06FC0D80156E0AA0FD0
:10554000BB1F5A95E1F7BA8BA98BDC01A61BB70BE1
:10555000BD01A817B90770F0A6E0880F991FAA959A
:10556000E1F780960E94B93289899A89861B970B48
:105570009A8B898BAB85BC85EA16FB0630F4EB81F0
:10558000FC81EF2B09F04CC07AC08D859E850817F1
:105590001907BCF1A989BA894423A9F0A619B7094A
:1055A000433058F0C4018096B40176956795860F14
:1055B000971F8A179B0708F45EC0DB1640F4DD24B2
:1055C000D394DB0E4ACFB887AF83FE82ED82AE0C58
:1055D000BF1C4F5F4130D9F0642F70E061507109FA
:1055E000CB0195958795A989BA898A0F9B1FAF81B1
:1055F000B8858A1B9B0BBDD74B0169887A88FA82D4
:10560000E982453140F037C069877A8705C06988EB
:105610007A88FA82E98250E0C39469857A8548CF16
:105620004230E0F09501ED81FE812E1B3F0BA8EE8C
:10563000B3E00E941E33950149815A81241B350B2A
:1056400040E050E0BDD788EE93E0821B930B0E94B0
:10565000A606BC0188EB9AE78CD702C060E070E038
:10566000AB81BC816D937C930AC0E217F30708F409
:1056700064CF51E0D1CFEB81FC81EF2B99F6C401CF
:105680006296E2E10C94E433A6E2B2E0EAE4FBE2E3
:105690000C94C833F82E062F89E393E00E946334FC
:1056A0004C01E02FF0E0E457FE4F1491EF2DF0E0B5
:1056B000E157FE4FE4911092AE011092AF011092AB
:1056C000B0011092B1011092B5011092B401109284
:1056D000B6011092B7011092B8011092B9018091F1
:1056E0001A01813009F051C18091010118160CF4A2
:1056F0004CC188E088B9E860E7B90E943A05006CBF
:10570000B02E00937C000E943A05C12EE12C00E0EF
:10571000212F4FEFBE016F5F7F4F80E191E00E942C
:1057200034002F2D206CF22E20937C00212F44E199
:10573000BE0161507E4F80E191E00E943400FE0185
:105740003196DE01A150BE4FAE01475D5F4F8081B3
:1057500091812D913D918217930728F0821B930B25
:105760009183808302C01182108232964E175F07A8
:1057700071F7B0927C0060E070E0CE01019662DECD
:105780009F5F913148F0903470F0F0E1AF2EBA2C69
:10579000A4E06A2E712C0EC0E0E1AE2EBB24B394BF
:1057A000612C712C07C060E1A62E64E0B62E72E079
:1057B000672E712C58E0D52EA895C12EE12C00E063
:1057C000212F4FEFBE016F5F7F4FC5010E94340054
:1057D0006114710479F064EB71E0CE01019632DE60
:1057E0005C0181ECA8168FE3B80608F45BC0A12C1D
:1057F000B12C58C0C5018064DA94DD2011F05C0141
:10580000DBCF8115944010F08EEF38C0F0927C0011
:10581000E894A6F848E0F42EC12EE12C00E0212FF8
:1058200044E1BE0161507E4FC5010E94340068947E
:10583000A6F8FA94F110F0CF24E1215028F3822F3A
:1058400090E0880F991FE1E0F0E0EC0FFD1FE80FFA
:10585000F91F40815181AFEFB1E0AC0FBD1FA80F20
:10586000B91F8D919C914817590728F0481B590B77
:1058700051834083E2CF11821082DFCF8F3F09F442
:10588000AACFFE013196E80FF11DE80FF11D20812E
:105890003181B3E036952795BA95E1F731832083BE
:1058A0008150ECCF6501E12CF12C9501D501C6D6D4
:1058B00023E330E040E050E083D6A8E6B2E0D3D660
:1058C00096948794940140E050E07AD6C301880F03
:1058D000991F19012A0104C0220C331C441C551CB9
:1058E0008A95D2F72092B6013092B7014092B80162
:1058F0005092B9018091090190910A01A0910B0188
:10590000B0910C010397A105B10540F01092B601CA
:105910001092B7011092B8011092B901A114B1040C
:1059200069F41092B5011092B4011092B601109270
:10593000B7011092B8011092B90127C027E030E0FA
:105940002619370980E094E2A4EFB0E0BC01CD0154
:1059500004C0660F771F881F991F2A95D2F7A701E9
:105960009601220F331F441F551F2AD62093AE01E4
:105970003093AF014093B0015093B1018091010188
:1059800087FD03C08FEF80930101CA5DDD4FE2E127
:105990001BC7CF93DF93D82F0E943A0286E090E096
:1059A0000E947C020E94D802C0E01092B3011092C3
:1059B000B20184E10E94470562E080E00E94D415B4
:1059C0000E94480224E046E464EF8091B201909185
:1059D000B3010E94EF046091B2017091B301CB0159
:1059E0008C539F408539954780F4CF5FC53070F068
:1059F00089E393E07BD70E94110287E991E00E943E
:105A00007C0284E60E94470505C0C0E00E94D802DF
:105A1000DF5F59F60E943A02DF91CF910895A0E02E
:105A2000B0E0E4E1FDE2B4C680E48AB98BB987E86E
:105A300080937A001092C1000E942605C4B784B7F3
:105A4000877F84BF0FB6F894A89580916000886125
:105A500080936000109260000FBE86E8809364001F
:105A600088E380937E001092B00087E08093B100BD
:105A700078940E94A002C3FD50C580E185BFC0E0BC
:105A80004F9906C082E00E944705CF5FCC33C1F733
:105A90008FE59DE69093130180931201CF3130F092
:105AA00080E69DE6909313018093120110922C01E1
:105AB0000E9423199FE088E10FB6F894A89580937F
:105AC00060000FBE90936000CC3399F038E0832ED5
:105AD00042E0942E50E1752E68E1662E79E5E72EBE
